:020000020000FC
:100000000FEF0DBF08E00EBFA0E0B1E00CEF0D93C5
:1000100000E90D930AE70D930AED0D9306E90D93A0
:100020000EEC0D930EEE0D930AE90D930EEF0D936A
:100030000EED0D930EEB0D9306EE0D930CE60D9366
:1000400002EF0D930EE60D930EE20D9300E8009380
:10005000610004E000936100209A0CEF00930A0015
:100060000CE300930700409A419A0E944B0030E055
:1000700020E005B30130E9F70E9453000DE906BD09
:10008000A89A56B151FF0E947A0050FF0E947F004B
:100090000E945600EECF00E004BD05E005BD0DE96D
:1000A00006BD00E0089523952F700895122F110FBB
:1000B000110F12FF429812FD429A13FF439813FD4D
:1000C000439A14FF449814FD449A15FF459815FD72
:1000D000459A0E947300142F17FF289817FD289A3D
:1000E000110F1BB90895532FA0E0B1E0A30F5C914D
:1000F000452F089533953F700E94840008953A95E6
:100100003F700E94840008950BE606BDA89A05B3CF
:060110000130E9F708953B
:00000001FF
